{
  "_format": "hh-sol-artifact-1",
  "contractName": "DvPSettlement",
  "sourceName": "contracts/DvPSettlement.sol",
  "abi": [
    {
      "inputs": [
        {
          "internalType": "address",
          "name": "_inrToken",
          "type": "address"
        }
      ],
      "stateMutability": "nonpayable",
      "type": "constructor"
    },
    {
      "anonymous": false,
      "inputs": [
        {
          "indexed": true,
          "internalType": "address",
          "name": "previousOwner",
          "type": "address"
        },
        {
          "indexed": true,
          "internalType": "address",
          "name": "newOwner",
          "type": "address"
        }
      ],
      "name": "OwnershipTransferred",
      "type": "event"
    },
    {
      "anonymous": false,
      "inputs": [
        {
          "indexed": false,
          "internalType": "address",
          "name": "regulator",
          "type": "address"
        }
      ],
      "name": "RegulatorAdded",
      "type": "event"
    },
    {
      "anonymous": false,
      "inputs": [
        {
          "indexed": true,
          "internalType": "bytes32",
          "name": "tradeId",
          "type": "bytes32"
        },
        {
          "indexed": false,
          "internalType": "string",
          "name": "reason",
          "type": "string"
        }
      ],
      "name": "TradeFailed",
      "type": "event"
    },
    {
      "anonymous": false,
      "inputs": [
        {
          "indexed": true,
          "internalType": "bytes32",
          "name": "tradeId",
          "type": "bytes32"
        },
        {
          "indexed": false,
          "internalType": "address",
          "name": "regulator",
          "type": "address"
        },
        {
          "indexed": false,
          "internalType": "string",
          "name": "reason",
          "type": "string"
        }
      ],
      "name": "TradeFlagged",
      "type": "event"
    },
    {
      "anonymous": false,
      "inputs": [
        {
          "indexed": true,
          "internalType": "bytes32",
          "name": "tradeId",
          "type": "bytes32"
        },
        {
          "indexed": false,
          "internalType": "address",
          "name": "buyer",
          "type": "address"
        },
        {
          "indexed": false,
          "internalType": "address",
          "name": "seller",
          "type": "address"
        },
        {
          "indexed": false,
          "internalType": "string",
          "name": "symbol",
          "type": "string"
        },
        {
          "indexed": false,
          "internalType": "uint256",
          "name": "qty",
          "type": "uint256"
        },
        {
          "indexed": false,
          "internalType": "uint256",
          "name": "price",
          "type": "uint256"
        }
      ],
      "name": "TradeInitiated",
      "type": "event"
    },
    {
      "anonymous": false,
      "inputs": [
        {
          "indexed": true,
          "internalType": "bytes32",
          "name": "tradeId",
          "type": "bytes32"
        },
        {
          "indexed": false,
          "internalType": "uint256",
          "name": "settledAt",
          "type": "uint256"
        },
        {
          "indexed": false,
          "internalType": "uint256",
          "name": "settlementTimeSeconds",
          "type": "uint256"
        }
      ],
      "name": "TradeSettled",
      "type": "event"
    },
    {
      "inputs": [
        {
          "internalType": "address",
          "name": "_reg",
          "type": "address"
        }
      ],
      "name": "addRegulator",
      "outputs": [],
      "stateMutability": "nonpayable",
      "type": "function"
    },
    {
      "inputs": [
        {
          "internalType": "bytes32",
          "name": "_tradeId",
          "type": "bytes32"
        },
        {
          "internalType": "string",
          "name": "_reason",
          "type": "string"
        }
      ],
      "name": "flagTrade",
      "outputs": [],
      "stateMutability": "nonpayable",
      "type": "function"
    },
    {
      "inputs": [],
      "name": "getAllTradeIds",
      "outputs": [
        {
          "internalType": "bytes32[]",
          "name": "",
          "type": "bytes32[]"
        }
      ],
      "stateMutability": "view",
      "type": "function"
    },
    {
      "inputs": [
        {
          "internalType": "bytes32",
          "name": "_tradeId",
          "type": "bytes32"
        }
      ],
      "name": "getTrade",
      "outputs": [
        {
          "components": [
            {
              "internalType": "bytes32",
              "name": "tradeId",
              "type": "bytes32"
            },
            {
              "internalType": "address",
              "name": "buyer",
              "type": "address"
            },
            {
              "internalType": "address",
              "name": "seller",
              "type": "address"
            },
            {
              "internalType": "address",
              "name": "stockToken",
              "type": "address"
            },
            {
              "internalType": "uint256",
              "name": "quantity",
              "type": "uint256"
            },
            {
              "internalType": "uint256",
              "name": "pricePerShare",
              "type": "uint256"
            },
            {
              "internalType": "uint256",
              "name": "totalAmount",
              "type": "uint256"
            },
            {
              "internalType": "uint256",
              "name": "timestamp",
              "type": "uint256"
            },
            {
              "internalType": "uint256",
              "name": "settledAt",
              "type": "uint256"
            },
            {
              "internalType": "enum DvPSettlement.SettlementStatus",
              "name": "status",
              "type": "uint8"
            },
            {
              "internalType": "string",
              "name": "stockSymbol",
              "type": "string"
            },
            {
              "internalType": "bool",
              "name": "regulatorFlagged",
              "type": "bool"
            },
            {
              "internalType": "string",
              "name": "flagReason",
              "type": "string"
            }
          ],
          "internalType": "struct DvPSettlement.Trade",
          "name": "",
          "type": "tuple"
        }
      ],
      "stateMutability": "view",
      "type": "function"
    },
    {
      "inputs": [],
      "name": "getTradeCount",
      "outputs": [
        {
          "internalType": "uint256",
          "name": "",
          "type": "uint256"
        }
      ],
      "stateMutability": "view",
      "type": "function"
    },
    {
      "inputs": [
        {
          "internalType": "bytes32",
          "name": "_tradeId",
          "type": "bytes32"
        },
        {
          "internalType": "address",
          "name": "_buyer",
          "type": "address"
        },
        {
          "internalType": "address",
          "name": "_seller",
          "type": "address"
        },
        {
          "internalType": "address",
          "name": "_stockToken",
          "type": "address"
        },
        {
          "internalType": "uint256",
          "name": "_quantity",
          "type": "uint256"
        },
        {
          "internalType": "uint256",
          "name": "_pricePerShare",
          "type": "uint256"
        },
        {
          "internalType": "string",
          "name": "_stockSymbol",
          "type": "string"
        }
      ],
      "name": "initiateTrade",
      "outputs": [
        {
          "internalType": "bytes32",
          "name": "",
          "type": "bytes32"
        }
      ],
      "stateMutability": "nonpayable",
      "type": "function"
    },
    {
      "inputs": [],
      "name": "inrToken",
      "outputs": [
        {
          "internalType": "contract INRToken",
          "name": "",
          "type": "address"
        }
      ],
      "stateMutability": "view",
      "type": "function"
    },
    {
      "inputs": [
        {
          "internalType": "address",
          "name": "",
          "type": "address"
        }
      ],
      "name": "isRegulator",
      "outputs": [
        {
          "internalType": "bool",
          "name": "",
          "type": "bool"
        }
      ],
      "stateMutability": "view",
      "type": "function"
    },
    {
      "inputs": [],
      "name": "owner",
      "outputs": [
        {
          "internalType": "address",
          "name": "",
          "type": "address"
        }
      ],
      "stateMutability": "view",
      "type": "function"
    },
    {
      "inputs": [],
      "name": "renounceOwnership",
      "outputs": [],
      "stateMutability": "nonpayable",
      "type": "function"
    },
    {
      "inputs": [
        {
          "internalType": "bytes32",
          "name": "_tradeId",
          "type": "bytes32"
        }
      ],
      "name": "settleTrade",
      "outputs": [],
      "stateMutability": "nonpayable",
      "type": "function"
    },
    {
      "inputs": [
        {
          "internalType": "uint256",
          "name": "",
          "type": "uint256"
        }
      ],
      "name": "tradeIds",
      "outputs": [
        {
          "internalType": "bytes32",
          "name": "",
          "type": "bytes32"
        }
      ],
      "stateMutability": "view",
      "type": "function"
    },
    {
      "inputs": [
        {
          "internalType": "bytes32",
          "name": "",
          "type": "bytes32"
        }
      ],
      "name": "trades",
      "outputs": [
        {
          "internalType": "bytes32",
          "name": "tradeId",
          "type": "bytes32"
        },
        {
          "internalType": "address",
          "name": "buyer",
          "type": "address"
        },
        {
          "internalType": "address",
          "name": "seller",
          "type": "address"
        },
        {
          "internalType": "address",
          "name": "stockToken",
          "type": "address"
        },
        {
          "internalType": "uint256",
          "name": "quantity",
          "type": "uint256"
        },
        {
          "internalType": "uint256",
          "name": "pricePerShare",
          "type": "uint256"
        },
        {
          "internalType": "uint256",
          "name": "totalAmount",
          "type": "uint256"
        },
        {
          "internalType": "uint256",
          "name": "timestamp",
          "type": "uint256"
        },
        {
          "internalType": "uint256",
          "name": "settledAt",
          "type": "uint256"
        },
        {
          "internalType": "enum DvPSettlement.SettlementStatus",
          "name": "status",
          "type": "uint8"
        },
        {
          "internalType": "string",
          "name": "stockSymbol",
          "type": "string"
        },
        {
          "internalType": "bool",
          "name": "regulatorFlagged",
          "type": "bool"
        },
        {
          "internalType": "string",
          "name": "flagReason",
          "type": "string"
        }
      ],
      "stateMutability": "view",
      "type": "function"
    },
    {
      "inputs": [
        {
          "internalType": "address",
          "name": "newOwner",
          "type": "address"
        }
      ],
      "name": "transferOwnership",
      "outputs": [],
      "stateMutability": "nonpayable",
      "type": "function"
    }
  ],
  "bytecode": "0x608060405234801561001057600080fd5b5060405162001c3938038062001c39833981016040819052610031916100cf565b61003a3361007f565b6001808055600280546001600160a01b0319166001600160a01b039390931692909217909155336000908152600560205260409020805460ff191690911790556100ff565b600080546001600160a01b038381166001600160a01b0319831681178455604051919092169283917f8be0079c531659141344cd1fd0a4f28419497f9722a3daafe3b4186f6b6457e09190a35050565b6000602082840312156100e157600080fd5b81516001600160a01b03811681146100f857600080fd5b9392505050565b611b2a806200010f6000396000f3fe608060405234801561001057600080fd5b50600436106100e95760003560e01c80639ef35cac1161008c578063ac63f3c711610066578063ac63f3c714610209578063e85017d61461021c578063f2fde38b1461022f578063ff52c4841461024257600080fd5b80639ef35cac146101c0578063a3031b77146101e1578063a3b13799146101e957600080fd5b8063715018a6116100c8578063715018a61461016b5780638d7b60f2146101735780638da5cb5b146101885780639d2a693f146101ad57600080fd5b8062162420146100ee57806323725a1d1461012357806354fc916914610138575b600080fd5b6101016100fc366004611383565b610255565b60405161011a9d9c9b9a9998979695949392919061141a565b60405180910390f35b6101366101313660046114b8565b6103ea565b005b61015b610146366004611550565b60056020526000908152604090205460ff1681565b604051901515815260200161011a565b61013661051b565b61017b61052f565b60405161011a9190611572565b6000546001600160a01b03165b6040516001600160a01b03909116815260200161011a565b6101366101bb366004611383565b610587565b6101d36101ce3660046115cc565b610c93565b60405190815260200161011a565b6004546101d3565b6101fc6101f7366004611383565b610f27565b60405161011a91906116cc565b610136610217366004611550565b611187565b600254610195906001600160a01b031681565b61013661023d366004611550565b6111e9565b6101d3610250366004611383565b61125f565b600360208190526000918252604090912080546001820154600283015493830154600484015460058501546006860154600787015460088801546009890154600a8a018054999b6001600160a01b03998a169b908a169a99909816989697959694959394929360ff909216926102ca906117c9565b80601f01602080910402602001604051908101604052809291908181526020018280546102f6906117c9565b80156103435780601f1061031857610100808354040283529160200191610343565b820191906000526020600020905b81548152906001019060200180831161032657829003601f168201915b505050600b840154600c85018054949560ff909216949193509150610367906117c9565b80601f0160208091040260200160405190810160405280929190818152602001828054610393906117c9565b80156103e05780601f106103b5576101008083540402835291602001916103e0565b820191906000526020600020905b8154815290600101906020018083116103c357829003601f168201915b505050505090508d565b3360009081526005602052604090205460ff168061041257506000546001600160a01b031633145b6104555760405162461bcd60e51b815260206004820152600f60248201526e2737ba1030903932b3bab630ba37b960891b60448201526064015b60405180910390fd5b600083815260036020526040812060078101549091036104a95760405162461bcd60e51b815260206004820152600f60248201526e151c985919481b9bdd08199bdd5b99608a1b604482015260640161044c565b600b8101805460ff19166001179055600c81016104c7838583611852565b5060098101805460ff1916600417905560405184907fd48883224c7c7d0de8cb9e72b65a224b83d3355e20d64541170b2261251e3fdc9061050d90339087908790611913565b60405180910390a250505050565b610523611280565b61052d60006112da565b565b6060600480548060200260200160405190810160405280929190818152602001828054801561057d57602002820191906000526020600020905b815481526020019060010190808311610569575b5050505050905090565b61058f61132a565b610597611280565b600081815260036020526040812060078101549091036105eb5760405162461bcd60e51b815260206004820152600f60248201526e151c985919481b9bdd08199bdd5b99608a1b604482015260640161044c565b6000600982015460ff1660048111156106065761060661139c565b148061062a57506001600982015460ff1660048111156106285761062861139c565b145b6106675760405162461bcd60e51b815260206004820152600e60248201526d496e76616c69642073746174757360901b604482015260640161044c565b600b81015460ff16156106af5760405162461bcd60e51b815260206004820152601060248201526f151c985919481a5cc8199b1859d9d95960821b604482015260640161044c565b600381015460025460018301546040516370a0823160e01b81526001600160a01b0391821660048201529281169260009291909116906370a0823190602401602060405180830381865afa15801561070b573d6000803e3d6000fd5b505050506040513d601f19601f8201168201806040525081019061072f9190611953565b60028401546040516370a0823160e01b81526001600160a01b039182166004820152919250600091908416906370a0823190602401602060405180830381865afa158015610781573d6000803e3d6000fd5b505050506040513d601f19601f820116820180604052508101906107a59190611953565b6002546001860154604051636eb1769f60e11b81526001600160a01b03918216600482015230602482015292935060009291169063dd62ed3e90604401602060405180830381865afa1580156107ff573d6000803e3d6000fd5b505050506040513d601f19601f820116820180604052508101906108239190611953565b6002860154604051636eb1769f60e11b81526001600160a01b0391821660048201523060248201529192506000919086169063dd62ed3e90604401602060405180830381865afa15801561087b573d6000803e3d6000fd5b505050506040513d601f19601f8201168201806040525081019061089f9190611953565b9050856006015484101561091c5760098601805460ff191660031790556040805160208082526018908201527f496e73756666696369656e742062757965722066756e64730000000000000000918101919091528790600080516020611ad5833981519152906060015b60405180910390a2505050505050610c87565b85600401548310156109885760098601805460ff19166003179055604080516020808252601a908201527f496e73756666696369656e742073656c6c657220736861726573000000000000918101919091528790600080516020611ad583398151915290606001610909565b85600601548210156109f45760098601805460ff191660031790556040805160208082526017908201527f427579657220616c6c6f77616e6365206e6f7420736574000000000000000000918101919091528790600080516020611ad583398151915290606001610909565b8560040154811015610a605760098601805460ff191660031790556040805160208082526018908201527f53656c6c657220616c6c6f77616e6365206e6f74207365740000000000000000918101919091528790600080516020611ad583398151915290606001610909565b6002805460018801549188015460068901546040516323b872dd60e01b81526001600160a01b03948516600482015291841660248301526044820152600092909116906323b872dd906064016020604051808303816000875af1158015610acb573d6000803e3d6000fd5b505050506040513d601f19601f82011682018060405250810190610aef919061196c565b905080610b3e5760405162461bcd60e51b815260206004820152601760248201527f5061796d656e74207472616e73666572206661696c6564000000000000000000604482015260640161044c565b600287015460018801546004808a01546040516323b872dd60e01b81526001600160a01b0394851692810192909252918316602482015260448101919091526000918816906323b872dd906064016020604051808303816000875af1158015610bab573d6000803e3d6000fd5b505050506040513d601f19601f82011682018060405250810190610bcf919061196c565b905080610c165760405162461bcd60e51b815260206004820152601560248201527414da185c994819195b1a5d995c9e4819985a5b1959605a1b604482015260640161044c565b60098801805460ff1916600217905542600889018190556007890154600091610c3f91906119a4565b60408051428152602081018390529192508b917fff32da4eb957eac19a18b78af6157b5e2b8f0df901671b1049f0c5c502838d32910160405180910390a25050505050505050505b610c9060018055565b50565b6000610c9d611280565b60008881526003602052604090206007015415610cf35760405162461bcd60e51b8152602060048201526014602482015273547261646520616c72656164792065786973747360601b604482015260640161044c565b6000610cff84866119bd565b9050604051806101a001604052808a8152602001896001600160a01b03168152602001886001600160a01b03168152602001876001600160a01b031681526020018681526020018581526020018281526020014281526020016000815260200160006004811115610d7257610d7261139c565b8152602080820186905260006040808401829052805180840182528281526060948501528d82526003808452918190208551815592850151600180850180546001600160a01b03199081166001600160a01b03948516179091559287015160028601805485169184169190911790559486015192840180549092169216919091179055608083015160048083019190915560a0840151600583015560c0840151600683015560e08401516007830155610100840151600883015561012084015160098301805493949193909260ff1990911691908490811115610e5757610e5761139c565b0217905550610140820151600a820190610e7190826119d4565b50610160820151600b8201805460ff1916911515919091179055610180820151600c820190610ea090826119d4565b5050600480546001810182556000919091527f8a35acfbc15ff81a39ae7d344fd709f28e8600b4aa8c65c6b64bfe7fe36bd19b018a90555060405189907fee825965bf548360f374f79d86d61e12e1a3f73c6fd2e64d933d3e35988265e990610f12908b908b9088908b908b90611a94565b60405180910390a25096979650505050505050565b610f92604080516101a081018252600080825260208201819052918101829052606081018290526080810182905260a0810182905260c0810182905260e081018290526101008101829052906101208201908152606060208201819052600060408301529081015290565b60008281526003602081815260409283902083516101a0810185528154815260018201546001600160a01b03908116938201939093526002820154831694810194909452918201541660608301526004808201546080840152600582015460a0840152600682015460c0840152600782015460e08401526008820154610100840152600982015461012084019160ff909116908111156110345761103461139c565b60048111156110455761104561139c565b8152602001600a82018054611059906117c9565b80601f0160208091040260200160405190810160405280929190818152602001828054611085906117c9565b80156110d25780601f106110a7576101008083540402835291602001916110d2565b820191906000526020600020905b8154815290600101906020018083116110b557829003601f168201915b5050509183525050600b82015460ff1615156020820152600c820180546040909201916110fe906117c9565b80601f016020809104026020016040519081016040528092919081815260200182805461112a906117c9565b80156111775780601f1061114c57610100808354040283529160200191611177565b820191906000526020600020905b81548152906001019060200180831161115a57829003601f168201915b5050505050815250509050919050565b61118f611280565b6001600160a01b038116600081815260056020908152604091829020805460ff1916600117905590519182527f2860b5ba44f983f8f363ee6eeb3c24cbca3096803fbdd5129b9e253f01cac076910160405180910390a150565b6111f1611280565b6001600160a01b0381166112565760405162461bcd60e51b815260206004820152602660248201527f4f776e61626c653a206e6577206f776e657220697320746865207a65726f206160448201526564647265737360d01b606482015260840161044c565b610c90816112da565b6004818154811061126f57600080fd5b600091825260209091200154905081565b6000546001600160a01b0316331461052d5760405162461bcd60e51b815260206004820181905260248201527f4f776e61626c653a2063616c6c6572206973206e6f7420746865206f776e6572604482015260640161044c565b600080546001600160a01b038381166001600160a01b0319831681178455604051919092169283917f8be0079c531659141344cd1fd0a4f28419497f9722a3daafe3b4186f6b6457e09190a35050565b60026001540361137c5760405162461bcd60e51b815260206004820152601f60248201527f5265656e7472616e637947756172643a207265656e7472616e742063616c6c00604482015260640161044c565b6002600155565b60006020828403121561139557600080fd5b5035919050565b634e487b7160e01b600052602160045260246000fd5b600581106113d057634e487b7160e01b600052602160045260246000fd5b9052565b6000815180845260005b818110156113fa576020818501810151868301820152016113de565b506000602082860101526020601f19601f83011685010191505092915050565b8d81526001600160a01b038d811660208301528c811660408301528b166060820152608081018a905260a0810189905260c0810188905260e08101879052610100810186905260006114706101208301876113b2565b6101a06101408301526114876101a08301866113d4565b8415156101608401528281036101808401526114a381856113d4565b9150509e9d5050505050505050505050505050565b6000806000604084860312156114cd57600080fd5b83359250602084013567ffffffffffffffff808211156114ec57600080fd5b818601915086601f83011261150057600080fd5b81358181111561150f57600080fd5b87602082850101111561152157600080fd5b6020830194508093505050509250925092565b80356001600160a01b038116811461154b57600080fd5b919050565b60006020828403121561156257600080fd5b61156b82611534565b9392505050565b6020808252825182820181905260009190848201906040850190845b818110156115aa5783518352928401929184019160010161158e565b50909695505050505050565b634e487b7160e01b600052604160045260246000fd5b600080600080600080600060e0888a0312156115e757600080fd5b873596506115f760208901611534565b955061160560408901611534565b945061161360608901611534565b93506080880135925060a0880135915060c088013567ffffffffffffffff8082111561163e57600080fd5b818a0191508a601f83011261165257600080fd5b813581811115611664576116646115b6565b604051601f8201601f19908116603f0116810190838211818310171561168c5761168c6115b6565b816040528281528d60208487010111156116a557600080fd5b82602086016020830137600060208483010152809550505050505092959891949750929550565b6020815281516020820152600060208301516116f360408401826001600160a01b03169052565b5060408301516001600160a01b03811660608401525060608301516001600160a01b038116608084015250608083015160a083015260a083015160c083015260c083015160e083015260e083015161010081818501528085015191505061012081818501528085015191505061014061176e818501836113b2565b808501519150506101a0610160818186015261178e6101c08601846113d4565b908601519092506101806117a58682018315159052565b860151858403601f19018387015290506117bf83826113d4565b9695505050505050565b600181811c908216806117dd57607f821691505b6020821081036117fd57634e487b7160e01b600052602260045260246000fd5b50919050565b601f82111561184d57600081815260208120601f850160051c8101602086101561182a5750805b601f850160051c820191505b8181101561184957828155600101611836565b5050505b505050565b67ffffffffffffffff83111561186a5761186a6115b6565b61187e8361187883546117c9565b83611803565b6000601f8411600181146118b2576000851561189a5750838201355b600019600387901b1c1916600186901b17835561190c565b600083815260209020601f19861690835b828110156118e357868501358255602094850194600190920191016118c3565b50868210156119005760001960f88860031b161c19848701351681555b505060018560011b0183555b5050505050565b6001600160a01b03841681526040602082018190528101829052818360608301376000818301606090810191909152601f909201601f1916010192915050565b60006020828403121561196557600080fd5b5051919050565b60006020828403121561197e57600080fd5b8151801515811461156b57600080fd5b634e487b7160e01b600052601160045260246000fd5b818103818111156119b7576119b761198e565b92915050565b80820281158282048414176119b7576119b761198e565b815167ffffffffffffffff8111156119ee576119ee6115b6565b611a02816119fc84546117c9565b84611803565b602080601f831160018114611a375760008415611a1f5750858301515b600019600386901b1c1916600185901b178555611849565b600085815260208120601f198616915b82811015611a6657888601518255948401946001909101908401611a47565b5085821015611a845787850151600019600388901b60f8161c191681555b5050505050600190811b01905550565b6001600160a01b0386811682528516602082015260a060408201819052600090611ac0908301866113d4565b60608301949094525060800152939250505056fe13f27b2ed0c6c57a52b8c77384429f7509b00afa2bd98073f778a4557d510a86a2646970667358221220cc1eb11ac4cfb29828f21d5d70dd2041ff6b1cd0d3f8fc21f71252399bde553564736f6c63430008130033",
  "linkReferences": {},
  "deployedLinkReferences": {}
}