{
  "_format": "hh-sol-artifact-1",
  "contractName": "StockToken",
  "sourceName": "contracts/DvPSettlement.sol",
  "abi": [
    {
      "inputs": [
        {
          "internalType": "string",
          "name": "name",
          "type": "string"
        },
        {
          "internalType": "string",
          "name": "symbol",
          "type": "string"
        },
        {
          "internalType": "uint256",
          "name": "initialSupply",
          "type": "uint256"
        },
        {
          "internalType": "uint256",
          "name": "_priceInWei",
          "type": "uint256"
        }
      ],
      "stateMutability": "nonpayable",
      "type": "constructor"
    },
    {
      "anonymous": false,
      "inputs": [
        {
          "indexed": true,
          "internalType": "address",
          "name": "owner",
          "type": "address"
        },
        {
          "indexed": true,
          "internalType": "address",
          "name": "spender",
          "type": "address"
        },
        {
          "indexed": false,
          "internalType": "uint256",
          "name": "value",
          "type": "uint256"
        }
      ],
      "name": "Approval",
      "type": "event"
    },
    {
      "anonymous": false,
      "inputs": [
        {
          "indexed": true,
          "internalType": "address",
          "name": "previousOwner",
          "type": "address"
        },
        {
          "indexed": true,
          "internalType": "address",
          "name": "newOwner",
          "type": "address"
        }
      ],
      "name": "OwnershipTransferred",
      "type": "event"
    },
    {
      "anonymous": false,
      "inputs": [
        {
          "indexed": true,
          "internalType": "address",
          "name": "from",
          "type": "address"
        },
        {
          "indexed": true,
          "internalType": "address",
          "name": "to",
          "type": "address"
        },
        {
          "indexed": false,
          "internalType": "uint256",
          "name": "value",
          "type": "uint256"
        }
      ],
      "name": "Transfer",
      "type": "event"
    },
    {
      "inputs": [
        {
          "internalType": "address",
          "name": "owner",
          "type": "address"
        },
        {
          "internalType": "address",
          "name": "spender",
          "type": "address"
        }
      ],
      "name": "allowance",
      "outputs": [
        {
          "internalType": "uint256",
          "name": "",
          "type": "uint256"
        }
      ],
      "stateMutability": "view",
      "type": "function"
    },
    {
      "inputs": [
        {
          "internalType": "address",
          "name": "spender",
          "type": "address"
        },
        {
          "internalType": "uint256",
          "name": "amount",
          "type": "uint256"
        }
      ],
      "name": "approve",
      "outputs": [
        {
          "internalType": "bool",
          "name": "",
          "type": "bool"
        }
      ],
      "stateMutability": "nonpayable",
      "type": "function"
    },
    {
      "inputs": [
        {
          "internalType": "address",
          "name": "account",
          "type": "address"
        }
      ],
      "name": "balanceOf",
      "outputs": [
        {
          "internalType": "uint256",
          "name": "",
          "type": "uint256"
        }
      ],
      "stateMutability": "view",
      "type": "function"
    },
    {
      "inputs": [],
      "name": "decimals",
      "outputs": [
        {
          "internalType": "uint8",
          "name": "",
          "type": "uint8"
        }
      ],
      "stateMutability": "pure",
      "type": "function"
    },
    {
      "inputs": [
        {
          "internalType": "address",
          "name": "spender",
          "type": "address"
        },
        {
          "internalType": "uint256",
          "name": "subtractedValue",
          "type": "uint256"
        }
      ],
      "name": "decreaseAllowance",
      "outputs": [
        {
          "internalType": "bool",
          "name": "",
          "type": "bool"
        }
      ],
      "stateMutability": "nonpayable",
      "type": "function"
    },
    {
      "inputs": [
        {
          "internalType": "address",
          "name": "spender",
          "type": "address"
        },
        {
          "internalType": "uint256",
          "name": "addedValue",
          "type": "uint256"
        }
      ],
      "name": "increaseAllowance",
      "outputs": [
        {
          "internalType": "bool",
          "name": "",
          "type": "bool"
        }
      ],
      "stateMutability": "nonpayable",
      "type": "function"
    },
    {
      "inputs": [
        {
          "internalType": "address",
          "name": "to",
          "type": "address"
        },
        {
          "internalType": "uint256",
          "name": "amount",
          "type": "uint256"
        }
      ],
      "name": "mint",
      "outputs": [],
      "stateMutability": "nonpayable",
      "type": "function"
    },
    {
      "inputs": [],
      "name": "name",
      "outputs": [
        {
          "internalType": "string",
          "name": "",
          "type": "string"
        }
      ],
      "stateMutability": "view",
      "type": "function"
    },
    {
      "inputs": [],
      "name": "owner",
      "outputs": [
        {
          "internalType": "address",
          "name": "",
          "type": "address"
        }
      ],
      "stateMutability": "view",
      "type": "function"
    },
    {
      "inputs": [],
      "name": "priceInWei",
      "outputs": [
        {
          "internalType": "uint256",
          "name": "",
          "type": "uint256"
        }
      ],
      "stateMutability": "view",
      "type": "function"
    },
    {
      "inputs": [],
      "name": "renounceOwnership",
      "outputs": [],
      "stateMutability": "nonpayable",
      "type": "function"
    },
    {
      "inputs": [],
      "name": "stockSymbol",
      "outputs": [
        {
          "internalType": "string",
          "name": "",
          "type": "string"
        }
      ],
      "stateMutability": "view",
      "type": "function"
    },
    {
      "inputs": [],
      "name": "symbol",
      "outputs": [
        {
          "internalType": "string",
          "name": "",
          "type": "string"
        }
      ],
      "stateMutability": "view",
      "type": "function"
    },
    {
      "inputs": [],
      "name": "totalSupply",
      "outputs": [
        {
          "internalType": "uint256",
          "name": "",
          "type": "uint256"
        }
      ],
      "stateMutability": "view",
      "type": "function"
    },
    {
      "inputs": [
        {
          "internalType": "address",
          "name": "to",
          "type": "address"
        },
        {
          "internalType": "uint256",
          "name": "amount",
          "type": "uint256"
        }
      ],
      "name": "transfer",
      "outputs": [
        {
          "internalType": "bool",
          "name": "",
          "type": "bool"
        }
      ],
      "stateMutability": "nonpayable",
      "type": "function"
    },
    {
      "inputs": [
        {
          "internalType": "address",
          "name": "from",
          "type": "address"
        },
        {
          "internalType": "address",
          "name": "to",
          "type": "address"
        },
        {
          "internalType": "uint256",
          "name": "amount",
          "type": "uint256"
        }
      ],
      "name": "transferFrom",
      "outputs": [
        {
          "internalType": "bool",
          "name": "",
          "type": "bool"
        }
      ],
      "stateMutability": "nonpayable",
      "type": "function"
    },
    {
      "inputs": [
        {
          "internalType": "address",
          "name": "newOwner",
          "type": "address"
        }
      ],
      "name": "transferOwnership",
      "outputs": [],
      "stateMutability": "nonpayable",
      "type": "function"
    },
    {
      "inputs": [
        {
          "internalType": "uint256",
          "name": "_newPrice",
          "type": "uint256"
        }
      ],
      "name": "updatePrice",
      "outputs": [],
      "stateMutability": "nonpayable",
      "type": "function"
    }
  ],
  "bytecode": "0x60806040523480156200001157600080fd5b50604051620011ca380380620011ca833981016040819052620000349162000299565b83836003620000448382620003a1565b506004620000538282620003a1565b505050620000706200006a620000b360201b60201c565b620000b7565b60066200007e8482620003a1565b506007819055620000a933620000976000600a62000582565b620000a390856200059a565b62000109565b50505050620005ca565b3390565b600580546001600160a01b038381166001600160a01b0319831681179093556040519116919082907f8be0079c531659141344cd1fd0a4f28419497f9722a3daafe3b4186f6b6457e090600090a35050565b6001600160a01b038216620001645760405162461bcd60e51b815260206004820152601f60248201527f45524332303a206d696e7420746f20746865207a65726f206164647265737300604482015260640160405180910390fd5b8060026000828254620001789190620005b4565b90915550506001600160a01b038216600081815260208181526040808320805486019055518481527fddf252ad1be2c89b69c2b068fc378daa952ba7f163c4a11628f55a4df523b3ef910160405180910390a35050565b505050565b634e487b7160e01b600052604160045260246000fd5b600082601f830112620001fc57600080fd5b81516001600160401b0380821115620002195762000219620001d4565b604051601f8301601f19908116603f01168101908282118183101715620002445762000244620001d4565b816040528381526020925086838588010111156200026157600080fd5b600091505b8382101562000285578582018301518183018401529082019062000266565b600093810190920192909252949350505050565b60008060008060808587031215620002b057600080fd5b84516001600160401b0380821115620002c857600080fd5b620002d688838901620001ea565b95506020870151915080821115620002ed57600080fd5b50620002fc87828801620001ea565b604087015160609097015195989097509350505050565b600181811c908216806200032857607f821691505b6020821081036200034957634e487b7160e01b600052602260045260246000fd5b50919050565b601f821115620001cf57600081815260208120601f850160051c81016020861015620003785750805b601f850160051c820191505b81811015620003995782815560010162000384565b505050505050565b81516001600160401b03811115620003bd57620003bd620001d4565b620003d581620003ce845462000313565b846200034f565b602080601f8311600181146200040d5760008415620003f45750858301515b600019600386901b1c1916600185901b17855562000399565b600085815260208120601f198616915b828110156200043e578886015182559484019460019091019084016200041d565b50858210156200045d5787850151600019600388901b60f8161c191681555b5050505050600190811b01905550565b634e487b7160e01b600052601160045260246000fd5b600181815b80851115620004c4578160001904821115620004a857620004a86200046d565b80851615620004b657918102915b93841c939080029062000488565b509250929050565b600082620004dd575060016200057c565b81620004ec575060006200057c565b8160018114620005055760028114620005105762000530565b60019150506200057c565b60ff8411156200052457620005246200046d565b50506001821b6200057c565b5060208310610133831016604e8410600b841016171562000555575081810a6200057c565b62000561838362000483565b80600019048211156200057857620005786200046d565b0290505b92915050565b60006200059360ff841683620004cc565b9392505050565b80820281158282048414176200057c576200057c6200046d565b808201808211156200057c576200057c6200046d565b610bf080620005da6000396000f3fe608060405234801561001057600080fd5b50600436106101165760003560e01c8063715018a6116100a2578063a457c2d711610071578063a457c2d714610228578063a9059cbb1461023b578063c87cbe561461024e578063dd62ed3e14610256578063f2fde38b1461026957600080fd5b8063715018a6146101ea5780638d6cc56d146101f25780638da5cb5b1461020557806395d89b411461022057600080fd5b8063313ce567116100e9578063313ce5671461018157806339509351146101905780633c8da588146101a357806340c10f19146101ac57806370a08231146101c157600080fd5b806306fdde031461011b578063095ea7b31461013957806318160ddd1461015c57806323b872dd1461016e575b600080fd5b61012361027c565b6040516101309190610a21565b60405180910390f35b61014c610147366004610a8b565b61030e565b6040519015158152602001610130565b6002545b604051908152602001610130565b61014c61017c366004610ab5565b610328565b60405160008152602001610130565b61014c61019e366004610a8b565b61034c565b61016060075481565b6101bf6101ba366004610a8b565b61036e565b005b6101606101cf366004610af1565b6001600160a01b031660009081526020819052604090205490565b6101bf610384565b6101bf610200366004610b13565b610398565b6005546040516001600160a01b039091168152602001610130565b6101236103a5565b61014c610236366004610a8b565b6103b4565b61014c610249366004610a8b565b610434565b610123610442565b610160610264366004610b2c565b6104d0565b6101bf610277366004610af1565b6104fb565b60606003805461028b90610b5f565b80601f01602080910402602001604051908101604052809291908181526020018280546102b790610b5f565b80156103045780601f106102d957610100808354040283529160200191610304565b820191906000526020600020905b8154815290600101906020018083116102e757829003601f168201915b5050505050905090565b60003361031c818585610574565b60019150505b92915050565b600033610336858285610698565b610341858585610712565b506001949350505050565b60003361031c81858561035f83836104d0565b6103699190610b99565b610574565b6103766108b6565b6103808282610910565b5050565b61038c6108b6565b61039660006109cf565b565b6103a06108b6565b600755565b60606004805461028b90610b5f565b600033816103c282866104d0565b9050838110156104275760405162461bcd60e51b815260206004820152602560248201527f45524332303a2064656372656173656420616c6c6f77616e63652062656c6f77604482015264207a65726f60d81b60648201526084015b60405180910390fd5b6103418286868403610574565b60003361031c818585610712565b6006805461044f90610b5f565b80601f016020809104026020016040519081016040528092919081815260200182805461047b90610b5f565b80156104c85780601f1061049d576101008083540402835291602001916104c8565b820191906000526020600020905b8154815290600101906020018083116104ab57829003601f168201915b505050505081565b6001600160a01b03918216600090815260016020908152604080832093909416825291909152205490565b6105036108b6565b6001600160a01b0381166105685760405162461bcd60e51b815260206004820152602660248201527f4f776e61626c653a206e6577206f776e657220697320746865207a65726f206160448201526564647265737360d01b606482015260840161041e565b610571816109cf565b50565b6001600160a01b0383166105d65760405162461bcd60e51b8152602060048201526024808201527f45524332303a20617070726f76652066726f6d20746865207a65726f206164646044820152637265737360e01b606482015260840161041e565b6001600160a01b0382166106375760405162461bcd60e51b815260206004820152602260248201527f45524332303a20617070726f766520746f20746865207a65726f206164647265604482015261737360f01b606482015260840161041e565b6001600160a01b0383811660008181526001602090815260408083209487168084529482529182902085905590518481527f8c5be1e5ebec7d5bd14f71427d1e84f3dd0314c0f7b2291e5b200ac8c7c3b925910160405180910390a3505050565b60006106a484846104d0565b9050600019811461070c57818110156106ff5760405162461bcd60e51b815260206004820152601d60248201527f45524332303a20696e73756666696369656e7420616c6c6f77616e6365000000604482015260640161041e565b61070c8484848403610574565b50505050565b6001600160a01b0383166107765760405162461bcd60e51b815260206004820152602560248201527f45524332303a207472616e736665722066726f6d20746865207a65726f206164604482015264647265737360d81b606482015260840161041e565b6001600160a01b0382166107d85760405162461bcd60e51b815260206004820152602360248201527f45524332303a207472616e7366657220746f20746865207a65726f206164647260448201526265737360e81b606482015260840161041e565b6001600160a01b038316600090815260208190526040902054818110156108505760405162461bcd60e51b815260206004820152602660248201527f45524332303a207472616e7366657220616d6f756e7420657863656564732062604482015265616c616e636560d01b606482015260840161041e565b6001600160a01b03848116600081815260208181526040808320878703905593871680835291849020805487019055925185815290927fddf252ad1be2c89b69c2b068fc378daa952ba7f163c4a11628f55a4df523b3ef910160405180910390a361070c565b6005546001600160a01b031633146103965760405162461bcd60e51b815260206004820181905260248201527f4f776e61626c653a2063616c6c6572206973206e6f7420746865206f776e6572604482015260640161041e565b6001600160a01b0382166109665760405162461bcd60e51b815260206004820152601f60248201527f45524332303a206d696e7420746f20746865207a65726f206164647265737300604482015260640161041e565b80600260008282546109789190610b99565b90915550506001600160a01b038216600081815260208181526040808320805486019055518481527fddf252ad1be2c89b69c2b068fc378daa952ba7f163c4a11628f55a4df523b3ef910160405180910390a35050565b600580546001600160a01b038381166001600160a01b0319831681179093556040519116919082907f8be0079c531659141344cd1fd0a4f28419497f9722a3daafe3b4186f6b6457e090600090a35050565b600060208083528351808285015260005b81811015610a4e57858101830151858201604001528201610a32565b506000604082860101526040601f19601f8301168501019250505092915050565b80356001600160a01b0381168114610a8657600080fd5b919050565b60008060408385031215610a9e57600080fd5b610aa783610a6f565b946020939093013593505050565b600080600060608486031215610aca57600080fd5b610ad384610a6f565b9250610ae160208501610a6f565b9150604084013590509250925092565b600060208284031215610b0357600080fd5b610b0c82610a6f565b9392505050565b600060208284031215610b2557600080fd5b5035919050565b60008060408385031215610b3f57600080fd5b610b4883610a6f565b9150610b5660208401610a6f565b90509250929050565b600181811c90821680610b7357607f821691505b602082108103610b9357634e487b7160e01b600052602260045260246000fd5b50919050565b8082018082111561032257634e487b7160e01b600052601160045260246000fdfea2646970667358221220f0328cb594d3a5b4cd2d4e8dff140da8ee22793b7b2c4bf5297edbb9c92fa7d064736f6c63430008130033",
  "linkReferences": {},
  "deployedLinkReferences": {}
}